:020000040800F2
:10000000380D0020D500000801130008C5060008BF
:1000100000000000000000000000000000000000E0
:10002000000000000000000000000000151600089D
:1000300000000000000000008D15000855160008A3
:100040000501000800000000050100080501000886
:100050000501000805010008050100080501000868
:10006000000000007D06000805010008A106000848
:100070003105000805010008050100080000000026
:100080009D170008000000000000000005010008A6
:100090000000000005010008050100080501000836
:1000A0000000000005010008000000000501000834
:1000B0000501000800000000000000000501000824
:1000C0000348854600F012FA00480047C11A0008AC
:1000D000380D00200C4880F308880C480168090E90
:1000E0000B4A914205D10B480B4901600B480C4962
:1000F00001600C4880470C480047FEE7FEE7FEE73A
:10010000FEE7FEE7FEE70000380D002004000000D7
:100110001F00000018100240010000000000014014
:100120000000000039170008C100000830B50B4678
:10013000014600202022012409E00D46D5409D42C1
:1001400005D31D469540491B254695404019154647
:10015000521E002DF1DC30BDF8B5002425460029E3
:1001600004DA0E46012400214042B141002B04DA9A
:100170001E46002352420125B34100F035F98C465A
:1001800017461E46AC4203D0002540428D41AC4686
:10019000002C02D0002657429E4161463A46334623
:1001A00001B0F0BDF8B502464A40D40F42004B0002
:1001B00052085B089A4202D20246084611464A009B
:1001C00023D0C30D4A00DDB2120EAD1A202D35DA50
:1001D00049020126490AF6058A19002C00D052422C
:1001E00020214F1B1146B9402A411018C20D9A42D6
:1001F00021D0002C17D0012D08DCDA05801AD20F8F
:100200008019D207DBB200F038F9F8BDDA05801AA0
:10021000012340001B06C01880185A428018CA0FDC
:100220001043490007E04908C2071143DA05801A64
:1002300080194008801800F018F9F8BD610001220B
:10024000511A001BF7E70122D2075140AAE7012209
:10025000D2075040A6E7024670B54A40D30FDB07ED
:1002600040002DD04A002AD0010E140E00021202C6
:100270000919400A520A8418E50104465443000A49
:10028000120A2E045043A4194219200CC543AA187F
:10029000120C0125AD03521C521912047F3924049B
:1002A00000D0521C104301D44000491EC2B20C06BB
:1002B000C0092018401C4008802A02D003E000201A
:1002C00070BD40084000002900DA0020184370BDCE
:1002D00070B502464A40D50F40004A00ED0740087D
:1002E0005208002814D0002A12D0C40DD30D4102A8
:1002F0000120C0055202490A520AE41A09181218CC
:100300007D34914201D3641C00E04900002C01DAE5
:10031000002070BD0023914201D3891A0343400895
:1003200049000028F7D100290AD0914202D10121C9
:10033000C90705E0914201D2012101E00121C94331
:10034000E005C018401900F090F870BD70B54B0082
:100350005B0803430BD04B005C0D0026334665421F
:10036000B341D417AD1AA34102DB0020014670BD92
:1003700012053018514170BD70B5CD0F4A00090308
:100380000123090B1B0519430B4BED070024520DEC
:100390009A4201DA002070BD074B34339A4203DCE5
:1003A0009A1A00F051F802E00449511888402C4391
:1003B000F1D0404270BD0000FF030000CDFBFFFF05
:1003C000C20FD207400040080BD0C10D0723DB014C
:1003D000C91840020905400A1143C20840071143E9
:1003E0007047002001467047F0B51FB40646002054
:1003F00082B005464024019100901BE001992246FD
:100400000F46304600F020F8049A059B801A994167
:1004100010D310461946224600F07AF8361A8F415A
:100420000197224601200021009F00F071F8381842
:100430004D4100902046641E0028DFDC019B00989F
:100440002946324607B0F0BD10B5202A04DB084625
:10045000203AD040002110BD0B46D340D04020248C
:10046000A21A91400843194610BD002904DA401C25
:10047000490001D140084000704770B40024050CC9
:1004800005D11024000402D1002921D01124050E29
:1004900001D100020834050F01D10001241D850F90
:1004A00001D18000A41C002801DB4000641C00294D
:1004B00008D020252E1B0D46F540A14000D001217B
:1004C0002943084301061B1B000ADB1D02D500203F
:1004D00070BC7047DB05181880180029F8DA401C3A
:1004E0004900F5D170BC400840007047064C01251A
:1004F000064E05E0E36807CC2B430C3C98471034CC
:10050000B442F7D3FFF7E0FD641F0008841F000822
:1005100010B5202A04DB0146203A9140002010BD8E
:10052000914020239C1A0346E3401943904010BD9C
:10053000064801684907C90F01D00421016001681C
:100540000907C90F01D0082101607047002401404C
:1005500038B5012000F0E6F80F480E4CC378902221
:10056000E1580E4D29401143E150C07820580C4904
:100570000C4B084000900C4A0421204600F0F6F88D
:100580000A220421204600F01FF90421204600F031
:100590000FF938BD00000240201F00080F80FFFF48
:1005A00010400000284400403001002070B50125B3
:1005B0006D04284600F0B6F80924E406022204215E
:1005C000204600F070F901220421204600F05EF977
:1005D00003220421204600F07AF961680420814357
:1005E000616001460122204600F067F902220821DD
:1005F000204600F058F901220821204600F046F973
:1006000003220821204600F062F961680820814336
:10061000616001460122204600F04FF9284600F0B3
:1006200099F8134C20680C21884308432060206807
:100630001049084020606068032109038843606016
:100640000D48E121006849024A101018FFF76EFDBD
:1006500080B2E0602068012108432060E0698002E8
:10066000C00FFBD0E0694002C00FF7D070BD0000A2
:1006700000440040FFE9FFEF2001002010B5074CC7
:1006800020688007C00F03D00220606001F008FBE3
:10069000042060600120606010BD00000000024086
:1006A000074801688904C90F01D0811405E0016879
:1006B0008903C90F02D0012109044160704700007D
:1006C00000000240FEE7000030B5836801221340BD
:1006D00002D00022104630BD8C684B68C9682343A5
:1006E000C468034D2C4021430B43C360F2E7000074
:1006F000C73FFFFF30B583680122134002D00022BC
:10070000104630BD18C94D6823430C6889682C43D6
:1007100023430B43C168024C21400B43C360EFE706
:100720003CC2FEFF08B504494A6902434A6149696F
:100730000140009108BD00000010024008B50449C6
:100740004A6902434A6149690140009108BD0000BD
:100750000010024008B50449CA690243CA61C96968
:100760000140009108BD00000010024070B5094E24
:10077000044671182039049D0C34CE7F0830102DAA
:1007800003D03250C87F035170BD3251C97F0B5026
:1007900070BD0000201F0008044A51182039C97F8D
:1007A000425801231A43425070470000201F00089E
:1007B000044A51182039C97F425802231A43425033
:1007C00070470000201F0008054B59182039C97FC9
:1007D000001D0B581B0C1B0413430B5070470000EB
:1007E000201F0008F0B500243EE001232A46A34064
:1007F0001A4038D04F680668134653435D005D19B0
:10080000AE435F433E4306604E68012E01D0022E88
:1008100005D18F6886685F43AE433E4386600F69AB
:10082000C668AE431D467D432E43C6604D68022D0B
:1008300019D1FF2A0AD84E69056A534353431A0156
:10084000D21A954373431D4305620CE0130A1A46FE
:100850005A435A435A4313019E1A4D69436A6A43E5
:10086000B34313434362641C0A681546E240BCD19B
:100870004A68012A01D0022A06D1CB6841682A467B
:1008800091435A43114341600120F0BD10B5046A01
:100890000B464B434B434B431901C91A8C435343FB
:1008A0001C43046210BD10B5036849434C000C1989
:1008B000A34351430B43036010BD10B5C3684943C4
:1008C0004C000C19A34351430B43C36010BD10B53A
:1008D000836849434C000C19A34351430B43836085
:1008E00010BD30B502685208520002608C68CA68B8
:1008F00003681F252D021202AB43224313430360FA
:100900004A680261026801231A4302608368012277
:10091000D203934383608C690B6985682343ED0A96
:10092000ED021D4385600B69002B02D083681343E1
:1009300083600C68036803252D05AB4323430360E4
:100940004B694168914319434160012030BD00006B
:1009500010B57D21C900FFF7E9FB0449401E48613D
:10096000002088610520086110BD000000E000E063
:1009700010B5044600F026FE206000F009FE60601D
:1009800000F014FEA06010BD014610B50020002943
:100990000FD110490A6B9207920F012A0AD0022A3E
:1009A00011D0032A09D000F00DFE00F0F1FD00F097
:1009B000FDFD10BD00F006FE10BD09688907C90FD6
:1009C000FAD0054810BD096A8907C90FFAD001207D
:1009D000C00310BD0010024000127A0001490860F7
:1009E000704700002001002010B5012910D0042913
:1009F00010D0102910D0402910D0CB1FF93B05D0C2
:100A000001239B0299420BD105210AE0042108E051
:100A1000002106E0012104E0022102E0032100E0C0
:100A20000621084B18305B5C064C18180E34615CCC
:100A300003248C400368120CA3438A4013430360D1
:100A400010BD00002A1F000810B5012910D004298C
:100A500010D0102910D0402910D0CB1FF93B05D061
:100A600001239B0299420BD105210AE0042108E0F1
:100A7000002106E0012104E0022102E0032100E060
:100A80000621084B18305B5C064C18180E34615C6C
:100A9000F0248C400368120CA3438A401343036084
:100AA00010BD00002A1F000810B5012910D004292C
:100AB00010D0102910D0402910D0CB1FF93B05D001
:100AC00001239B0299420BD105230AE0042308E08D
:100AD000002306E0012304E0022302E0032300E0F8
:100AE0000623016A044CE35C0A249C40A1439A401B
:100AF0001143016210BD00003F1F000810B501291D
:100B000010D0042910D0102910D0402910D0CB1FAC
:100B1000F93B05D001239B0299420BD105210AE044
:100B2000042108E0002106E0012104E0022102E0A6
:100B3000032100E00621084B18305B5C064C1818B6
:100B40000E34615C0C248C400368120CA3438A4071
:100B50001343036010BD00002A1F000870B502682F
:100B6000174B184D984201D0A84203D17024A243DC
:100B70004C682243144E154C984208D0A84206D027
:100B8000134DA84203D0B04201D0A04204D10325A6
:100B90002D02AA43CD682A4302608A68C2620A888D
:100BA0008262984203D0B04201D0A04201D1097CB8
:100BB00001634169012211434161104670BD00008B
:100BC000002C014000040040004401400048014066
:100BD00000200040012910D0042910D0102910D085
:100BE000402910D0CA1FF93A05D001229202914241
:100BF0000BD105210AE0042108E0002106E00121D3
:100C000004E0022102E0032100E00621064A183038
:100C1000525C054B1018DB1D5B5C04210268994097
:100C20008A430260704700002A1F0008012910D083
:100C3000042910D0102910D0402910D0CA1FF93A29
:100C400005D00122920291420BD105210AE0042134
:100C500008E0002106E0012104E0022102E0032176
:100C600000E00621064A1830525C054B1018DB1DC7
:100C70005B5C0821026899400A43026070470000EB
:100C80002A1F0008034610B5002001290DD01029A5
:100C900010D0FF39491E12D00F242402A14203D1E3
:100CA0001146184600F03EFC10BD1146184600F0F3
:100CB0006DFB10BD1146184600F0AAFB10BD114691
:100CC000184600F0E9FB10BDFEB5044600680D466D
:100CD0000026C007C00F43D1E9686868AA690843C5
:100CE00029691143084321681E4A114008432060C6
:100CF000A968606803221203904308436060696931
:100D0000A068121190430843A0601748844203D1A1
:100D10000020FFF739FE06E01448844220D16846DF
:100D2000FFF726FE029800281AD02968002917D05C
:100D30000126AA69F3039A420CD140004A088018A0
:100D4000FFF7F4F981B20A4808400907490F014347
:100D5000E16005E04A081018FFF7E8F980B2E060AA
:100D60003046FEBDF369FFEF00380140004400400B
:100D7000F0FF0000F0B54B480126816991B0760282
:100D8000314381618069092730400B9001200325A0
:100D90000024FF0600906946019504943846FFF749
:100DA00021FD022000906946019504943846FFF722
:100DB00019FD102000906946019504943846FFF70C
:100DC00011FD3A4938480B78C258394F3A40C25061
:100DD0000A7883582F03BB4337013B4383500A787B
:100DE00083582027BB433B4383500A7883584027CE
:100DF000BB4383500A7883588027BB433B438350CF
:100E00000B78C2582F02BA433243C2500A78815835
:100E1000AB029943C3141943815026480168090A5B
:100E20000902016024485E0006602448806A0121AE
:100E3000084322498862886A022108431F49886260
:100E4000886A102108431D4988620C940D940E9401
:100E50000CA91A480F94FFF737FC13208001069065
:100E6000079408AA70C206A91448FFF743FC134868
:100E7000C0680421114A8843D0605069C008C0008E
:100E80005061506888435060506808218843506022
:100E9000D068C901AA02904308430849C86011B04C
:100EA000F0BD00000010024000000240251F0008B5
:100EB000EFBFFFFF0CE400E000E100E00024014090
:100EC00038B50C48012142690A4342614069084033
:100ED00000900021092000F037FA0120064C400262
:100EE000206000210B2000F02FFA0120C0022060BA
:100EF00038BD00000010024000E100E0F0B5012024
:100F000087B08005FFF71AFC01204004FFF716FCAC
:100F100001208004FFF712FC20200925ED06A862BD
:100F20004601AE62002401270090029403946946B2
:100F3000019704942846FFF755FC029403946946F0
:100F40002846019700960494FFF74CFC07B0F0BDCB
:100F5000F0B58FB0012402250326684670C01F4FEC
:100F600003940494694638460594FFF73BFC0095CA
:100F70000394049469463846029601950594FFF758
:100F800031FC17486105C2690A43C261C069154C4A
:100F900008400D90E06889118843E06020680901ED
:100FA00088432060206889108843206000200E4913
:100FB00007910690089009900A900B900C9006A952
:100FC0002046FFF78EFC6068290608436060E068F1
:100FD00006490840E0600FB0F0BD00000014004872
:100FE00000100240005400405D3E302001F8FFFF39
:100FF00070B53848012182698CB0C9020A43826108
:101000008069002408400B9088100590022006900B
:101010000A9009200794089405A90994C006FFF7CF
:10102000E1FB6846048001940294039404742A4C02
:1010300069462046FFF792FD20688025A84320607E
:10104000A06860217026B0430843A060A168042016
:10105000C908C9000143A160216A102081432162AF
:10106000014600222046FFF7EFFC02221021204615
:10107000FFF71AFDE06840218843E060E06809025C
:101080008843E060CA0001212046FFF7ADFC002242
:1010900001212046FFF732FD002201212046FFF703
:1010A000D3FC002201212046FFF7FEFC6A0210213A
:1010B0002046FFF799FC002210212046FFF71EFD75
:1010C00060686021B04308436060A068A843A060E6
:1010D0000CB070BD00100240002C0140F0B5424839
:1010E00095B0C26902210A43C261C06908401390E9
:1010F0003E4801680024090A0902016001263C49B2
:1011000030040860684604802020019039483A4D38
:101110000290694603942846FFF720FD286880273F
:1011200038432860A86835490840A860012128464E
:10113000FFF77CFD60200B900C940D940E940BAA8D
:1011400001210F942846FFF79DFD01212846FFF756
:1011500041FD10212846FFF769FD0C940BAA1021D0
:1011600028460D94FFF78EFD10212846FFF732FD2B
:10117000A9142846FFF75AFD0C940BAAA914284677
:101180000D94FFF77FFDA9142846FFF723FD68683B
:1011900070218843202108436860A868B843A8608C
:1011A000402002250794089405A90A96099421C1B4
:1011B0000920C0060839FFF715FB09200597079499
:1011C000089405A9C0060A9606950994FFF70AFB3C
:1011D00005950794089405A909480A960695099467
:1011E000FFF700FB15B0F0BD0010024010E400E076
:1011F00000E100E0FF0F000000040040F8BFFFFF27
:1012000000040048F0B539480121C2698FB0490493
:101210000A43C261C069002408400D9001250420E2
:101220000226032703946A4605950494C1C2092047
:101230006946C006FFF7D6FA082003946A4605956A
:101240000494C1C209206946C006FFF7CBFA2949B8
:101250002748CB781026C258274F3A403243C25015
:10126000CA78835803263603B3438350CB78C258D9
:101270002026B243C250CA7883584026B3438350D5
:10128000CB78C658802296431643C650CB78C258B6
:1012900003263602B243C250CA788158B30099433C
:1012A0008150E120400206900794089409940B9421
:1012B0000C940C20114C0A9006A92046FFF704FD5F
:1012C000A06821158843A060A06889000843A06039
:1012D0006068491088436060A06808218843A06066
:1012E0002068284320600FB0F0BD000000100240CD
:1012F00000000240461F0008EFBFFFFF004400400F
:10130000704700008307FF22DB0E9A408907090E11
:10131000994000280BDA0007000F083883080848B6
:101320009B001818C36993430B43C361704783083C
:1013300004489B001B1818689043084318607047C6
:1013400000ED00E000E400E08307FF22DB0E9A409E
:101350008907090E994000280BDA0007000F0838AA
:10136000830808489B001818C36993430B43C36163
:101370007047830804489B001B1818689043084373
:101380001860704700ED00E000E400E030B5026A4C
:10139000520852000262026A436884697025A408F8
:1013A000A400AC430D682C430225AA430D692A43CF
:1013B00052084D6852002A43124DA84205D0124DE2
:1013C000A84202D0114DA84214D10825AA434D6964
:1013D000AD002A430425AA438D68AD002A43FF25AA
:1013E0000135AB438D692B4301256D02AB43CD69BC
:1013F0006D002B4343608461C96841630262012030
:1014000030BD0000002C0140004401400048014074
:1014100070B5026A1025AA430262026A43688469B1
:1014200073263602B4430E68360234432026B24394
:101430000E6936013243AA434D682D012A43134DEC
:10144000A84205D0124DA84202D0124DA84215D193
:101450008025AA434D69AD012A434025AA438D68E2
:10146000AD012A430125AD02AB438D69AD002B438D
:101470000125ED02AB43CD69ED002B434360846150
:10148000C96881630262012070BD0000002C014028
:10149000004401400048014070B5026AFF25013553
:1014A000AA430262026A4368C4697026A408A400C1
:1014B000B4430E6834436E00B2430E6936023243C1
:1014C000AA434D682D022A43134DA84205D0134D5F
:1014D000A84202D0124DA84217D10125ED02AA431D
:1014E0004D69AD022A430125AD02AA438D68AD02C4
:1014F0002A4301252D03AB438D692D012B43012583
:101500006D03AB43CD696D012B434360C461C96872
:10151000C1630262012070BD002C01400044014003
:101520000048014070B5026A01252D03AA430262FA
:10153000026A4468C36973263602B3430E683602F2
:1015400033436E00B2430E6936033243AA434D68FB
:101550002D032A430A4DA84205D00A4DA84202D0C5
:10156000094DA84205D10125AD03AC438D69AD01FC
:101570002C434460C361C96801640262012070BDEC
:10158000002C014000440140004801407047000029
:1015900004494968F0221140034A0909515CC840D6
:1015A00070470000001002404B1F000803494968C3
:1015B000034A4905490F515CC8407047001002407A
:1015C0005B1F000810B5064841680C200140054823
:1015D00005D0042903D0082901D100F005F810BD79
:1015E0000010024000127A0010B5084C60680848EC
:1015F000E16A0907090F491CFEF798FD61680F228F
:1016000092041140890C891C484310BD001002400F
:1016100000127A007047000010B50C480A4CC078E0
:101620002158490849002150094881688022114306
:1016300081600A2204212046FFF7C6F804212046D3
:10164000FFF7AAF810BD000000000240201F0008AC
:10165000004400407047000070B533480121026823
:101660008A430A430260006808405BD02F4C206820
:1016700001221043206020688007C00FFBD0236840
:10168000F820834380210B432360636B1343636320
:10169000626B9207D20FFBD0626B82430A43626394
:1016A00060687B21C90388432121C9030843606026
:1016B000E06A00090001E062206801210906084390
:1016C000206020688001C00FFBD06068F021884353
:1016D00060606068072109028843606061680220D9
:1016E00089088900014361600C216068084008286E
:1016F000FBD10F4E3046FFF72BF90E490869042540
:10170000284308613046FFF769F9606BA8436063BE
:10171000206B10218843084320630021481EFFF7F7
:10172000F1FD70BDFEE70000002002400010024005
:10173000006CDC0200E000E0154801680122114362
:1017400001604168134A114041600168124A11402A
:1017500001600168012292049143016041683F22C7
:10176000120491434160C16A09090901C162016B18
:10177000FF22943291430163016B80221143016384
:10178000416B4908490041630021816070470000B6
:10179000001002400CB8FF08FFFFF6FE0748016981
:1017A000C907C90F02D00121C943016101690907B5
:1017B000C90F02D00821C9430161704700040040ED
:1017C00031B5144A00995000914201DD401A07E0FA
:1017D000104A5242914202DA0818404200E008469C
:1017E000044605460C49009000F01AF80A02010E62
:1017F0001143284600F014F80A02010E074811436D
:10180000411A204600F00CF80902000E084300902F
:1018100038BD0000B61F92011B812400504EFC0011
:10182000F8B504148BB2264682B25E430D141046FE
:1018300037145843360480190021794116466E4307
:10184000371436048019794126466E438919F8BD4C
:1018500002E008C8121F08C1002AFAD17047704779
:10186000002001E001C1121F002AFBD1704770B5B2
:101870000446006A2168FFF7D3FF0902050E606A7B
:101880000D43E168FFF7CCFF0902000E084328185A
:10189000E060E068E169FFF7C3FF0902000E08435A
:1018A0006061A06A61686269891AFFF7B9FF09027D
:1018B000050EE06A0D432169FFF7B2FF0902000E31
:1018C000084328182061E0682169FFF7A9FF090291
:1018D000000E0843A061206BA169A268891AFFF776
:1018E0009FFF0902000E0843E1694018E06170BDE6
:1018F000F0B5044685B0006A0090A66A01463046FD
:10190000FEF7A9FCE56A2946FEF7E2FCE26801461B
:101910001046FEF7DDFC074629463046FEF7D8FCA8
:10192000A061A26801461046FEF7D2FC0146039072
:101930003846FEF7CDFCA0640290606B0490266BE5
:1019400001463046FEF7C4FC054660680099FEF784
:1019500082FC2946FEF7BCFC074625612946206823
:10196000FEF7B6FC014601903846FEF7B1FC606414
:10197000256C074629463046FEF7AAFC064628464F
:101980000499FEF768FC05463146606AFEF763FC81
:101990002946FEF79DFC0099FEF79AFCE064656E0F
:1019A000064629460298FEF7FDFB00900399FEF7D4
:1019B00052FC01462846FEF78BFC206500990298F0
:1019C000FEF786FC606539462846FEF7EBFB009083
:1019D0000199FEF740FC01462846FEF779FCA06518
:1019E00038460099FEF774FCE06531462846FEF75C
:1019F0006FFC206605B0F0BDF8B52B48C168082221
:101A00001143C160026A01210A430262026A102185
:101A10000A430262016A8214114301622349C162CE
:101A20000021416381630164C16AC16302680121CD
:101A30000A43026042690A4342611D4A00201E4E69
:101A400000901B4C40321B4B3046FEF78FFE0322AA
:101A500001213046FEF7B8FE01213046FEF7A8FE10
:101A6000E06880088000E060A06817218843C9070B
:101A70000843A060A068C00FFCD1E1680320814347
:101A80000143E160A0680D4D2840401CA060206823
:101A9000C007C00FFBD001213046FEF77DFEA068D5
:101AA0002840001DA060F8BD00040040FF030000B6
:101AB000002401402401002000000240E8FFFF7FD5
:101AC00008B56B48012182690A4382618069084038
:101AD00000900807FEF73EFE0021481FFFF712FCAA
:101AE0000021881EFFF70EFC0021481EFFF70AFCAC
:101AF000FFF7B2FDFFF702FAFFF7E2F9FFF73AF955
:101B0000FFF7ECFAFFF774FAFFF77CFBFFF720FA18
:101B1000594C584E66615948206162692069D31753
:101B2000C117050A090629430006FEF715FB2061C7
:101B3000206901252D0642192069D317C117070A0C
:101B4000090639430006FEF707FBE0602069291209
:101B50004219D3170020FEF7FFFAA0604849543419
:101B6000A160A801A162E0607F202163C005E0625E
:101B700045496163434A05C44449E165A06144495C
:101B8000E161A06320460838216E083C8847206D3B
:101B9000FEF716FC1822FEF7D9FBFEF7EDFB2746F1
:101BA0003C3F3862606DFEF70BFC1822FEF7CEFB5F
:101BB000FEF7E2FB7862A06DFEF702FC1822FEF74A
:101BC000C5FBFEF7D9FBB862E06DFEF7F9FB182202
:101BD000FEF7BCFBFEF7D0FBF862206EFEF7F0FBD1
:101BE0001822FEF7B3FBFEF7C7FB38630024BC6086
:101BF00038462849A8300161274941618561694219
:101C0000C1610662FEF7D2FCFEF7A2FCFFF7F4FE0C
:101C1000FFF702FD3D464E3DAE1E28780007FCD57D
:101C20001E48C0694006C00FF7D0307800F04CF96C
:101C300028784008400028703078401C3070307898
:101C4000FF28EAD328781021084328702878F72144
:101C50000840287034707078401C707070782028AC
:101C600004D22878042108432870D6E77470D4E79A
:101C700000100240CB02000038000020DC140000FD
:101C800000005C436F12033B00002041FCF432383B
:101C9000CDCCCC3DE9269100CCCC0C0000440040DA
:101CA000F8B520200921C9068862644C6449A088DF
:101CB000401D00B2A080884201DB4842A080A0689D
:101CC000CA30A060A0685F49884201DB4842A0603A
:101CD000A068C002E062E0685B4D2946FFF7A0FD06
:101CE0000902000E0843616A4018606220692946B3
:101CF000FFF796FD0902000E0843A16A4018A06292
:101D0000626A52484142824200DB6162A26A8242B8
:101D100000DBA162E06AFFF753FD0546606AFFF74A
:101D20004FFD6169FFF77CFD0A02010E11436D183A
:101D3000A06AFFF745FDA169FFF772FD0902000ED9
:101D4000084328182063206B3C4D38352860A8686C
:101D50002968FFF765FD0902060EE8680E43696809
:101D6000FFF75EFD0902000E0843301868606868DE
:101D70006063363D2878364E400724D5206AFEF74A
:101D80001FFB1822FEF7E2FAFEF7F6FA2F46F637A7
:101D9000386030697860796A38468847E069FEF7CC
:101DA0000FFB1822FEF7D2FAFEF7E6FA3060B868A9
:101DB0007060F0692749884202DD05200006B060A6
:101DC000B16B234888472878400731D52878F72118
:101DD000084028702878EF21084028701E480168C4
:101DE00022780346520016339952406821781B4AE4
:101DF00049005052F0692178000C4900FF32FF324F
:101E0000505230692178000C4900FF32FF325052A5
:101E10002078401C20702078FF2809D328780821DA
:101E2000084328702878FB21084028700020207083
:101E300020200921C9068861F8BD000000000020AB
:101E4000FF7F0000876400005A5006006C3F2403A7
:101E50005000002099991900240100203803002027
:101E600038B5044600686168401A0090E06800993F
:101E70004018E0606069E168FFF7D2FC0902050ED6
:101E800020690D430099FFF7CBFC0902000E0843BF
:101E90002818A060E068A169884201DDA069E060BF
:101EA000E068E169884201DAE069E060A068A16960
:101EB000884201DDA069A060A068E169884201DA7A
:101EC000E069A06038BD000010B5114945220A70D4
:101ED0005A224A7040000A460A32135A8B70125A2C
:101EE000120ACA700B4A135A0B71125A120A4A711B
:101EF000094A135A8B71125A120ACA71074A135AA5
:101F00000B72105A000A4872FFF786FB10BD0000E2
:101F1000300100203803002036050020340700205F
:101F2000081C304458081C304458000000000404C9
:101F3000040000080000000800000800000008007D
:101F4000020406080A0C081C304458000000000077
:101F50000000000102030406070809000000000158
:101F600002030400841F0008000000202401000078
:101F700050180008A820000824010020140C0000BC
:101F800060180008000000000000000000000000D1
:101F90000000002500000038333333006666260059
:101FA0000000803F0000803F0000000000000000B3
:101FB0000000000000000000000000000000000021
:101FC0000000000000000000000000000000000A07
:101FD0000000000A000000000000000000000000F7
:101FE00000000000000000000000000000000000F1
:101FF00000000000000000000000000000000000E1
:102000000000000000000000000000006F18000841
:1020100000000000000000000000000000000000C0
:1020200000000000000000000000000000000000B0
:1020300000000000000000000000000000000000A0
:102040000000000000000000000000000000000090
:102050000000000000000000000000000000000080
:102060000000000000000000000000000000000070
:102070000000000000000000F1180008000000004F
:102080000000000000000000000000000000000050
:102090000000000000000000000000000000000040
:0820A000611E000800127A0025
:04000005080000C12E
:00000001FF
