:020000040800F2
:1000000010040020D5000008110D0008D7010008D9
:1000100000000000000000000000000000000000E0
:100020000000000000000000000000002510000893
:1000300000000000000000009D0F000827100008CD
:100040000501000800000000050100080501000886
:100050000501000805010008050100080501000868
:10006000000000009D01000805010008D5010008FE
:100070007D010008050100080501000800000000DE
:100080006D110008000000000000000005010008DC
:100090000000000005010008050100080501000836
:1000A0000000000005010008000000000501000834
:1000B0000501000800000000000000000501000824
:1000C0000348854600F048F80048004781120008C0
:1000D000100400200C4880F308880C480168090EC1
:1000E0000B4A914205D10B480B4901600B480C4962
:1000F00001600C4880470C480047FEE7FEE7FEE73A
:10010000FEE7FEE7FEE70000100400200400000008
:100110001F00000018100240010000000000014014
:100120000000000009110008C100000830B50B46AE
:10013000014600202022012409E00D46D5409D42C1
:1001400005D31D469540491B254695404019154647
:10015000521E002DF1DC30BD064C0125064E05E097
:10016000E36807CC2B430C3C98471034B442F7D3D8
:10017000FFF7AAFF28130008481300080648016883
:100180004907C90F01D00421016001680907C90F9F
:1001900001D008210160704700240140202109207E
:1001A000C00642694A404261094801688907C90F8F
:1001B00001D00221416001684907C90F01D0042123
:1001C000416001680907C90F01D0082141607047EB
:1001D000000002407047FEE730B5836801221340FB
:1001E00002D00022104630BD8C684B68C96823439A
:1001F000C468034D2C4021430B43C360F2E7000069
:10020000C73FFFFF30B583680122134002D00022B0
:10021000104630BD18C94D6823430C6889682C43CB
:1002200023430B43C168024C21400B43C360EFE7FB
:100230003CC2FEFF08B504494A6902434A61496964
:100240000140009108BD000000100240F0B50024FC
:100250003EE001232A46A3401A4038D04F68066882
:10026000134653435D005D19AE435F433E43066052
:100270004E68012E01D0022E05D18F6886685F433B
:10028000AE433E4386600F69C668AE431D467D435C
:100290002E43C6604D68022D19D1FF2A0AD84E6937
:1002A000056A534353431A01D21A954373431D43BE
:1002B00005620CE0130A1A465A435A435A43130183
:1002C0009E1A4D69436A6A43B34313434362641CF5
:1002D0000A681546E240BCD14A68012A01D0022AC8
:1002E00006D1CB6841682A4691435A431143416085
:1002F0000120F0BD30B502685208520002608C68DF
:10030000CA6803681F252D021202AB432243134320
:1003100003604A680261026801231A43026083682D
:100320000122D203934383608C690B698568234360
:10033000ED0AED021D4385600B69002B02D0836836
:10034000134383600C68036803252D05AB432343E7
:1003500003604B694168914319434160012030BDFE
:1003600010B57D21C900FFF7E1FE0449401E486138
:10037000002088610520086110BD000000E000E059
:1003800010B5044600F026FE206000F009FE606013
:1003900000F014FEA06010BD014610B50020002939
:1003A0000FD110490A6B9207920F012A0AD0022A34
:1003B00011D0032A09D000F00DFE00F0F1FD00F08D
:1003C000FDFD10BD00F006FE10BD09688907C90FCC
:1003D000FAD0054810BD096A8907C90FFAD0012073
:1003E000C00310BD0010024000127A0001490860ED
:1003F000704700000000002010B5012910D004292A
:1004000010D0102910D0402910D0CB1FF93B05D0B7
:1004100001239B0299420BD105210AE0042108E047
:10042000002106E0012104E0022102E0032100E0B6
:100430000621084B18305B5C064C18180E34615CC2
:1004400003248C400368120CA3438A4013430360C7
:1004500010BD0000EE12000810B5012910D00429CB
:1004600010D0102910D0402910D0CB1FF93B05D057
:1004700001239B0299420BD105210AE0042108E0E7
:10048000002106E0012104E0022102E0032100E056
:100490000621084B18305B5C064C18180E34615C62
:1004A000F0248C400368120CA3438A40134303607A
:1004B00010BD0000EE12000810B5012910D004296B
:1004C00010D0102910D0402910D0CB1FF93B05D0F7
:1004D00001239B0299420BD105230AE0042308E083
:1004E000002306E0012304E0022302E0032300E0EE
:1004F0000623016A044CE35C0A249C40A1439A4011
:100500001143016210BD00000313000810B501295A
:1005100010D0042910D0102910D0402910D0CB1FA2
:10052000F93B05D001239B0299420BD105210AE03A
:10053000042108E0002106E0012104E0022102E09C
:10054000032100E00621084B18305B5C064C1818AC
:100550000E34615C0C248C400368120CA3438A4067
:100560001343036010BD0000EE12000870B502686E
:10057000174B184D984201D0A84203D17024A243D2
:100580004C682243144E154C984208D0A84206D01D
:10059000134DA84203D0B04201D0A04204D103259C
:1005A0002D02AA43CD682A4302608A68C2620A8883
:1005B0008262984203D0B04201D0A04201D1097CAE
:1005C00001634169012211434161104670BD000081
:1005D000002C01400004004000440140004801405C
:1005E00000200040012910D0042910D0102910D07B
:1005F000402910D0CA1FF93A05D001229202914237
:100600000BD105210AE0042108E0002106E00121C8
:1006100004E0022102E0032100E00621064A18302E
:10062000525C054B1018DB1D5B5C0421026899408D
:100630008A43026070470000EE120008012910D0C2
:10064000042910D0102910D0402910D0CA1FF93A1F
:1006500005D00122920291420BD105210AE004212A
:1006600008E0002106E0012104E0022102E003216C
:1006700000E00621064A1830525C054B1018DB1DBD
:100680005B5C0821026899400A43026070470000E1
:10069000EE120008034610B5002001290DD01029E4
:1006A00010D0FF39491E12D00F242402A14203D1D9
:1006B0001146184600F03EFC10BD1146184600F0E9
:1006C0006DFB10BD1146184600F0AAFB10BD114687
:1006D000184600F0E9FB10BDFEB5044600680D4663
:1006E0000026C007C00F43D1E9686868AA690843BB
:1006F00029691143084321681E4A114008432060BC
:10070000A968606803221203904308436060696926
:10071000A068121190430843A0601748844203D197
:100720000020FFF739FE06E01448844220D16846D5
:10073000FFF726FE029800281AD02968002917D052
:100740000126AA69F3039A420CD140004A08801896
:10075000FFF7ECFC81B20A4808400907490F014342
:10076000E16005E04A081018FFF7E0FC80B2E060A5
:100770003046FEBDF369FFEF003801400044004001
:10078000F0FF0000F0B54B480126816991B0760278
:10079000314381618069092730400B900120032596
:1007A0000024FF0600906946019504943846FFF73F
:1007B0004DFD022000906946019504943846FFF7EC
:1007C00045FD102000906946019504943846FFF7D6
:1007D0003DFD3A4938480A788358394F3B408350A9
:1007E0000A7883582F03BB4337013B4383500A7871
:1007F00083582027BB433B4383500A7883584027C4
:10080000BB4383500A7883588027BB433B438350C4
:100810000B78C2582F02BA433243C2500A7881582B
:10082000AB029943C3141943815026480168090A51
:100830000902016024485E0006602448806A0121A4
:10084000084322498862886A022108431F49886256
:10085000886A102108431D4988620C940D940E94F7
:100860000CA91A480F94FFF7B7FC132080010690DB
:100870000794700008AA61C206A91448FFF7C2FCD9
:100880001248C0680421114A8843D0605069C008EA
:10089000C000506150688843506050680821884308
:1008A0005060D068C901AA02904308430749C86054
:1008B00011B0F0BD0010024000000240E912000833
:1008C000EFBFFFFF0CE400E000E100E00024014086
:1008D00038B50C48012142690A4342614069084029
:1008E00000900021092000F037FA0120064C400258
:1008F000206000210B2000F02FFA0120C0022060B0
:1009000038BD00000010024000E100E0F0B5012019
:1009100087B08005FFF78EFC01204004FFF78AFCBA
:1009200001208004FFF786FC20200925ED06A8623F
:100930004601AE62002401270090029403946946A8
:10094000019704942846FFF781FC029403946946BA
:100950002846019700960494FFF778FC07B0F0BD95
:10096000F0B58FB0012402250326684670C01F4FE2
:1009700003940494694638460594FFF767FC009594
:100980000394049469463846029601950594FFF74E
:100990005DFC17486105C2690A43C261C069154C14
:1009A00008400D90E06889118843E06020680901E3
:1009B00088432060206889108843206000200E4909
:1009C00007910690089009900A900B900C9006A948
:1009D0002046FFF78FFC6068290608436060E068E6
:1009E00006490840E0600FB0F0BD00000014004868
:1009F00000100240005400405D3E302001F8FFFF2F
:100A000070B53848012182698CB0C9020A438261FD
:100A10008069002408400B90881005900220069001
:100A20000A9009200794089405A90994C006FFF7C5
:100A30000DFC6846048001940294039404742A4CCB
:100A400069462046FFF792FD20688025A843206074
:100A5000A06860217026B0430843A060A16804200C
:100A6000C908C9000143A160216A102081432162A5
:100A7000014600222046FFF7EFFC0222102120460B
:100A8000FFF71AFDE06840218843E060E068090252
:100A90008843E060CA0001212046FFF7ADFC002238
:100AA00001212046FFF732FD002201212046FFF7F9
:100AB000D3FC002201212046FFF7FEFC6A02102130
:100AC0002046FFF799FC002210212046FFF71EFD6B
:100AD00060686021B04308436060A068A843A060DC
:100AE0000CB070BD00100240002C0140F0B542482F
:100AF00095B0C26902210A43C261C06908401390DF
:100B00003E4801680024090A0902016001263C49A7
:100B100030040860684604802020019039483A4D2E
:100B20000290694603942846FFF720FD2868802735
:100B300038432860A86835490840A8600121284644
:100B4000FFF77CFD60200B900C940D940E940BAA83
:100B500001210F942846FFF79DFD01212846FFF74C
:100B600041FD10212846FFF769FD0C940BAA1021C6
:100B700028460D94FFF78EFD10212846FFF732FD21
:100B8000A9142846FFF75AFD0C940BAAA91428466D
:100B90000D94FFF77FFDA9142846FFF723FD686831
:100BA00070218843202108436860A868B843A86082
:100BB000402002250794089405A90A96099421C1AA
:100BC0000920C0060839FFF741FB09200597079463
:100BD000089405A9C0060A9606950994FFF736FB06
:100BE00005950794089405A909480A96069509945D
:100BF000FFF72CFB15B0F0BD0010024010E400E040
:100C000000E100E0FF0F000000040040F8BFFFFF1C
:100C100000040048F0B539480121C2698FB0490489
:100C20000A43C261C069002408400D9001250420D8
:100C30000226032703946A4605950494C1C209203D
:100C40006946C006FFF702FB082003946A46059533
:100C50000494C1C209206946C006FFF7F7FA294982
:100C60002748CB781026C258274F3A403243C2500B
:100C7000CA78835803263603B3438350CE7882590B
:100C800020239A431A438251CB78C2584026B2435C
:100C9000C250CE78825980239A431A438251CA782F
:100CA000835803263602B3438350CA788158B30071
:100CB00099438150E12040020690079408940994DA
:100CC0000B940C940C20114C0A9006A92046FFF7B7
:100CD00003FDA06821158843A060A068890008432F
:100CE000A0606068491088436060A1680820814363
:100CF000A1602068284320600FB0F0BD00100240C2
:100D0000000002400A130008EFBFFFFF004400404C
:100D1000704700008307FF22DB0E9A408907090E07
:100D2000994000280BDA0007000F083883080848AC
:100D30009B001818C36993430B43C3617047830832
:100D400004489B001B1818689043084318607047BC
:100D500000ED00E000E400E08307FF22DB0E9A4094
:100D60008907090E994000280BDA0007000F0838A0
:100D7000830808489B001818C36993430B43C36159
:100D80007047830804489B001B1818689043084369
:100D90001860704700ED00E000E400E030B5026A42
:100DA000520852000262026A436884697025A408EE
:100DB000A400AC430D682C430225AA430D692A43C5
:100DC00052084D6852002A43124DA84205D0124DD8
:100DD000A84202D0114DA84214D10825AA434D695A
:100DE000AD002A430425AA438D68AD002A43FF25A0
:100DF0000135AB438D692B4301256D02AB43CD69B2
:100E00006D002B4343608461C96841630262012025
:100E100030BD0000002C014000440140004801406A
:100E200070B5026A1025AA430262026A43688469A7
:100E300073263602B4430E68360234432026B2438A
:100E40000E6936013243AA434D682D012A43134DE2
:100E5000A84205D0124DA84202D0124DA84215D189
:100E60008025AA434D69AD012A434025AA438D68D8
:100E7000AD012A430125AD02AB438D69AD002B4383
:100E80000125ED02AB43CD69ED002B434360846146
:100E9000C96881630262012070BD0000002C01401E
:100EA000004401400048014070B5026AFF25013549
:100EB000AA430262026A4368C4697026A408A400B7
:100EC000B4430E6834436E00B2430E6936023243B7
:100ED000AA434D682D022A43134DA84205D0134D55
:100EE000A84202D0124DA84217D10125ED02AA4313
:100EF0004D69AD022A430125AD02AA438D68AD02BA
:100F00002A4301252D03AB438D692D012B43012578
:100F10006D03AB43CD696D012B434360C461C96868
:100F2000C1630262012070BD002C014000440140F9
:100F30000048014070B5026A01252D03AA430262F0
:100F4000026A4468C36973263602B3430E683602E8
:100F500033436E00B2430E6936033243AA434D68F1
:100F60002D032A430A4DA84205D00A4DA84202D0BB
:100F7000094DA84205D10125AD03AC438D69AD01F2
:100F80002C434460C361C96801640262012070BDE2
:100F9000002C01400044014000480140704700001F
:100FA00004494968F0221140034A0909515CC840CC
:100FB00070470000001002400F1300080349496801
:100FC000034A4905490F515CC84070470010024070
:100FD0001F13000810B5064841680C200140054861
:100FE00005D0042903D0082901D100F005F810BD6F
:100FF0000010024000127A0010B5084C60680848E2
:10100000E16A0907090F491CFFF790F861680F2290
:1010100092041140890C891C484310BD0010024005
:1010200000127A007047704770B53348012102689A
:101030008A430A430260006808405BD02F4C206856
:1010400001221043206020688007C00FFBD0236876
:10105000F820834380210B432360636B1343636356
:10106000626B9207D20FFBD0626B82430A436263CA
:1010700060687B21C90388432121C903084360605C
:10108000E06A00090001E0622068012109060843C6
:10109000206020688001C00FFBD06068F021884389
:1010A000606060680721090288436060616802200F
:1010B00089088900014361600C21606808400828A4
:1010C000FBD10F4E3046FFF74BF90E490869042556
:1010D000284308613046FFF789F9606BA8436063D5
:1010E000206B10218843084320630021481EFFF72E
:1010F00011FE70BDFEE7000000200240001002401B
:10110000006CDC0200E000E0154801680122114398
:1011100001604168134A114041600168124A114060
:1011200001600168012292049143016041683F22FD
:10113000120491434160C16A09090901C162016B4E
:10114000FF22943291430163016B802211430163BA
:10115000416B4908490041630021816070470000EC
:10116000001002400CB8FF08FFFFF6FE07480169B7
:10117000C907C90F02D00121C94301610169C9072B
:10118000C90F02D00821C943016170470004004023
:1011900002E008C8121F08C1002AFAD17047704740
:1011A000002001E001C1121F002AFBD1704700009E
:1011B000F0B52D480121026A0A430262026A102139
:1011C0000A430262016A82141143016200214163F1
:1011D00081630164C16A491EC1630168012421431E
:1011E00001604169082211434161214D22491F4F8D
:1011F00040350E781D4A1E481E4B0837F5510E78B3
:101200003D1D735103230E78151D77593F0C3F0484
:101210001F4377510B78D55802263543D5500978AE
:10122000535823435350C16889088900C1608168BD
:10123000172291434205114381608168C90FFCD197
:10124000C26803218A430A43C26082680B490A408C
:10125000521C82600268D207D20FFBD082680A401B
:10126000121D8260F0BD000000040040000002403A
:101270000024014004000020E4120008E8FFFF7F82
:1012800008B51748012182690A4382618169C9074B
:10129000C90F0091C26901040A43C261C0690840D4
:1012A00000210090481FFFF735FD0021881EFFF741
:1012B00031FD0021481EFFF72DFDFFF7B5FEFFF7BA
:1012C00025FBFFF705FBFFF75DFAFFF70FFCFFF7C4
:1012D00097FBFFF79FFCFFF743FBFFF769FFFEE774
:1012E00000100240081C304458081C3044580000CC
:1012F00000000404040000080000000800000800CA
:1013000000000800020406080A0C081C30445800BB
:1013100000000000000000010203040607080900A5
:101320000000000102030400481300080000002030
:1013300004000000901100084C1300080400002075
:0C1340000C040000A011000800127A004C
:04000005080000C12E
:00000001FF
