:020000040800F2
:10000000380E0020D500000829110008F10400086E
:1000100000000000000000000000000000000000E0
:100020000000000000000000000000003D14000877
:100030000000000000000000B51300087D14000857
:100040000501000800000000050100080501000886
:100050000501000805010008050100080501000868
:10006000000000008D04000805010008B504000828
:100070003D0300080501000805010008000000001C
:10008000C515000800000000000000000501000880
:100090000000000005010008050100080501000836
:1000A0000000000005010008000000000501000834
:1000B0000501000800000000000000000501000824
:1000C0000348854600F0ECF8004800474517000853
:1000D000380E00200C4880F308880C480168090E8F
:1000E0000B4A914205D10B480B4901600B480C4962
:1000F00001600C4880470C480047FEE7FEE7FEE73A
:10010000FEE7FEE7FEE70000380E002004000000D6
:100110001F00000018100240010000000000014014
:100120000000000061150008C100000830B50B4652
:10013000014600202022012409E00D46D5409D42C1
:1001400005D31D469540491B254695404019154647
:10015000521E002DF1DC30BDF8B5002425460029E3
:1001600004DA0E46012400214042B141002B04DA9A
:100170001E46002352420125B34100F050F88C4640
:1001800017461E46AC4203D0002540428D41AC4686
:10019000002C02D0002657429E4161463A46334623
:1001A00001B0F0BDF0B51FB486B000200090019002
:1001B00002900698069980B204900798090C0204F0
:1001C0000014114307900027089D099806913E46A8
:1001D0003C4603900398A9B20204000C03900498D3
:1001E0002D0C154348430021224600F048F8C7195A
:1001F000714110340E46402CECDB3846029A00F078
:100200003EF8009A019B8018009059410298019194
:10021000103002904028CCDB00980BB0F0BDF0B558
:100220001FB40646002082B005464024019100908C
:100230001BE0019922460F46304600F043F8049A2D
:10024000059B801A994110D310461946224600F0AA
:1002500016F8361A8F410197224601200021009F8F
:1002600000F00DF838184D4100902046641E00281B
:10027000DFDC019B00982946324607B0F0BD10B57F
:10028000202A04DB0146203A9140002010BD914015
:1002900020239C1A0346E3401943904010BD000000
:1002A000064C0125064E05E0E36807CC2B430C3CC9
:1002B00098471034B442F7D3FFF706FF5C220008DA
:1002C0007C22000810B5202A04DB0846203AD040E2
:1002D000002110BD0B46D340D0402024A21A9140EB
:1002E0000843194610BD70B58C180578401C6B0783
:1002F0005B0F01D10378401C2A1106D10278401C03
:1003000003E006780E70401C491C5B1EF9D12B07D8
:1003100005D40023521E0DD40B70491CFAE7037854
:10032000401CCB1A921C03E01D780D70491C5B1C0D
:10033000521EF9D5A142D8D3002070BD06480168ED
:100340004907C90F01D00421016001680907C90FDD
:1003500001D00821016070470024014038B5012018
:1003600000F0F6F810480E4CC2780E4BA1580F4D15
:1003700029401943A150C07820580D490D4B084021
:1003800000900D4A0421204600F006F90A220421BB
:10039000204600F02FF90421204600F01FF938BD57
:1003A0000000024090200000182200080F80FFFF8C
:1003B0001040000028440040C001002070B5012515
:1003C0006D04284600F0C4F80924E4060222042142
:1003D000204600F07EF901220421204600F06CF94D
:1003E00003220421204600F088F96168042081433B
:1003F000616001460122204600F075F902220821C1
:10040000204600F066F901220821204600F054F948
:1004100003220821204600F070F96168082081431A
:10042000616001460122204600F05DF9284600F097
:10043000A7F8134C20680C218843084320602068EB
:100440001049084020606068032109038843606008
:100450000D48E121006849024A101018FFF766FEB6
:1004600080B2E0602068012108432060E0698002DA
:10047000C00FFBD0E0694002C00FF7D070BD000094
:1004800000440040FFE9FFEFB001002010B5084C28
:1004900020688007C00F03D00220606001F062FA7C
:1004A00004206060082060600120606010BD0000D2
:1004B000000002400D4801688904C90F08D00121DD
:1004C00049034160490041604900416081140BE0EB
:1004D00001688903C90F08D00121890441604910CE
:1004E000416089004160C9104160704700000240CE
:1004F000FEE7000030B583680122134002D00022DD
:10050000104630BD8C684B68C9682343C468034DEE
:100510002C4021430B43C360F2E70000C73FFFFFBD
:1005200030B583680122134002D00022104630BD4E
:1005300018C94D6823430C6889682C4323430B4337
:10054000C168024C21400B43C360EFE73CC2FEFF91
:1005500008B504494A6902434A614969014000916A
:1005600008BD00000010024008B504494A69024372
:100570004A6149690140009108BD00000010024035
:1005800008B50449CA690243CA61C96901400091BA
:1005900008BD00000010024070B5094E04467118F5
:1005A0002039049D0C34CE7F0830102D03D03250FA
:1005B000C87F035170BD3251C97F0B5070BD000020
:1005C00018220008044A51182039C97F42580123D3
:1005D0001A4342507047000018220008044A51187C
:1005E0002039C97F425802231A4342507047000005
:1005F00018220008054B59182039C97F001D0B58D7
:100600001B0C1B0413430B507047000018220008FA
:10061000F0B500243EE001232A46A3401A4038D01A
:100620004F680668134653435D005D19AE435F4350
:100630003E4306604E68012E01D0022E05D18F6820
:1006400086685F43AE433E4386600F69C668AE432B
:100650001D467D432E43C6604D68022D19D1FF2AE9
:100660000AD84E69056A534353431A01D21A954377
:1006700073431D4305620CE0130A1A465A435A435A
:100680005A4313019E1A4D69436A6A43B3431343A5
:100690004362641C0A681546E240BCD14A68012ADC
:1006A00001D0022A06D1CB6841682A4691435A43B9
:1006B000114341600120F0BD10B5046A0B464B4365
:1006C0004B434B431901C91A8C4353431C430462E7
:1006D00010BD10B5036849434C000C19A3435143A6
:1006E0000B43036010BD10B5C36849434C000C199F
:1006F000A34351430B43C36010BD10B58368494306
:100700004C000C19A34351430B43836010BD30B51B
:1007100002685208520002608C68CA6803681F258C
:100720002D021202AB432243134303604A68026165
:10073000026801231A43026083680122D2039343B3
:1007400083608C690B6985682343ED0AED021D43C4
:1007500085600B69002B02D08368134383600C68AB
:10076000036803252D05AB43234303604B694168B0
:10077000914319434160012030BD000010B57D2137
:10078000C900FFF7D3FC0449401E4861002088617E
:100790000520086110BD000000E000E010B504462F
:1007A00000F024FE206000F007FE606000F012FE02
:1007B000A06010BD014610B5002000290FD11049DE
:1007C0000A6B9207920F012A0AD0022A11D0032A3B
:1007D00009D000F00BFE00F0EFFD00F0FBFD10BDB6
:1007E00000F004FE10BD09688907C90FFAD005485A
:1007F00010BD096A8907C90FFAD00120C00310BDD6
:100800000010024000127A000149086070470000A1
:10081000B001002010B5012910D0042910D01029F2
:1008200010D0402910D0CB1FF93B05D001239B02EB
:1008300099420BD105210AE0042108E0002106E0DD
:10084000012104E0022102E0032100E00621084B1F
:1008500018305B5C064C18180E34615C03248C4025
:100860000368120CA3438A401343036010BD0000C9
:100870002222000810B5012910D0042910D0102917
:1008800010D0402910D0CB1FF93B05D001239B028B
:1008900099420BD105210AE0042108E0002106E07D
:1008A000012104E0022102E0032100E00621084BBF
:1008B00018305B5C064C18180E34615CF0248C40D8
:1008C0000368120CA3438A401343036010BD000069
:1008D0002222000810B5012910D0042910D01029B7
:1008E00010D0402910D0CB1FF93B05D001239B022B
:1008F00099420BD105230AE0042308E0002306E017
:10090000012304E0022302E0032300E00623016A3E
:10091000044CE35C0A249C40A1439A4011430162C9
:1009200010BD00003722000810B5012910D004299D
:1009300010D0102910D0402910D0CB1FF93B05D082
:1009400001239B0299420BD105210AE0042108E012
:10095000002106E0012104E0022102E0032100E081
:100960000621084B18305B5C064C18180E34615C8D
:100970000C248C400368120CA3438A401343036089
:1009800010BD00002222000870B50268174B184DF8
:10099000984201D0A84203D17024A2434C6822435C
:1009A000144E154C984208D0A84206D0134DA842C8
:1009B00003D0B04201D0A04204D103252D02AA43A6
:1009C000CD682A4302608A68C2620A8882629842BD
:1009D00003D0B04201D0A04201D1097C016341693A
:1009E000012211434161104670BD0000002C0140FE
:1009F0000004004000440140004801400020004045
:100A0000012910D0042910D0102910D0402910D06D
:100A1000CA1FF93A05D00122920291420BD1052159
:100A20000AE0042108E0002106E0012104E002219F
:100A300002E0032100E00621064A1830525C054B13
:100A40001018DB1D5B5C0421026899408A43026038
:100A50007047000022220008012910D0042910D07C
:100A6000102910D0402910D0CA1FF93A05D0012210
:100A7000920291420BD105210AE0042108E00021F5
:100A800006E0012104E0022102E0032100E006214A
:100A9000064A1830525C054B1018DB1D5B5C0821C0
:100AA000026899400A430260704700002222000851
:100AB000034610B5002001290DD0102910D0FF39B0
:100AC000491E12D00F242402A14203D11146184618
:100AD00000F03CFC10BD1146184600F06BFB10BD49
:100AE0001146184600F0A8FB10BD1146184600F04C
:100AF000E7FB10BDFEB5044600680D460026C007A2
:100B0000C00F43D1E9686868AA690843296911439D
:100B1000084321681E4A114008432060A9686068A4
:100B2000032212039043084360606969A0681211B0
:100B300090430843A0601748844203D10020FFF788
:100B400039FE06E01448844220D16846FFF726FEAD
:100B5000029800281AD02968002917D00126AA690E
:100B6000F3039A420CD140004A088018FFF7DEFADE
:100B700081B20A4808400907490F0143E16005E0D6
:100B80004A081018FFF7D2FA80B2E0603046FEBD86
:100B9000F369FFEF0038014000440040F0FF00001F
:100BA000F0B54A480126816991B0760231438161EE
:100BB0008069092730400B90012003250024FF069F
:100BC00000906946019504943846FFF721FD022004
:100BD00000906946019504943846FFF719FD1020EE
:100BE00000906946019504943846FFF711FD394994
:100BF00037480B78C258384F3A40C2500A78835869
:100C00002F03BB433B4383500A7883582027BB43C1
:100C10003B4383500A7883584027BB4383500A786C
:100C200083588027BB433B4383500B78C2582F0225
:100C3000BA433243C2500A788158AB029943C31475
:100C40001943815025480168090A090201602448B6
:100C50005E0006602348806A0121084321498862BA
:100C6000886A022108431F498862886A1021084364
:100C70001C4988620C940D940E940CA919480F9489
:100C8000FFF738FC132080010690079408AA70C271
:100C900006A91448FFF744FC1248C0680421114A11
:100CA0008843D0605069C008C000506150688843D4
:100CB00050605068082188435060D068C901AA027A
:100CC000904308430749C86011B0F0BD00100240CE
:100CD000000002401D220008EFBFFFFF0CE400E00F
:100CE00000E100E00024014038B50C4801214269D0
:100CF0000A4342614069084000900021092000F049
:100D000037FA0120064C4002206000210B2000F041
:100D10002FFA0120C002206038BD00000010024000
:100D200000E100E0F0B5012087B08005FFF71CFC72
:100D300001204004FFF718FC01208004FFF714FC99
:100D400020200925ED06A8624601AE620024012795
:100D50000090029403946946019704942846FFF793
:100D600057FC029403946946284601970096049420
:100D7000FFF74EFC07B0F0BDF0B58FB0012402259F
:100D80000326684670C01F4F039404946946384692
:100D90000594FFF73DFC009503940494694638469A
:100DA000029601950594FFF733FC17486105C26967
:100DB0000A43C261C069154C08400D90E068891172
:100DC0008843E0602068090188432060206889101A
:100DD0008843206000200E490791069008900990F2
:100DE0000A900B900C9006A92046FFF790FC6068D3
:100DF000290608436060E06806490840E0600FB0DB
:100E0000F0BD0000001400480010024000540040F3
:100E10005D3E302001F8FFFF70B53848012182693E
:100E20008CB0C9020A4382618069002408400B909B
:100E300088100590022006900A90092007940894D3
:100E400005A90994C006FFF7E3FB684604800194F6
:100E50000294039404742A4C69462046FFF794FDDB
:100E600020688025A8432060A06860217026B043D8
:100E70000843A060A1680420C908C9000143A1601B
:100E8000216A102081432162014600222046FFF79B
:100E9000F1FC022210212046FFF71CFDE0684021F2
:100EA0008843E060E06809028843E060CA000121ED
:100EB0002046FFF7AFFC002201212046FFF734FD5A
:100EC000002201212046FFF7D5FC00220121204607
:100ED000FFF700FD6A0210212046FFF79BFC00226D
:100EE00010212046FFF720FD60686021B0430843D1
:100EF0006060A068A843A0600CB070BD0010024004
:100F0000002C0140F0B5424895B0C26902210A4365
:100F1000C261C069084013903E4801680024090A74
:100F20000902016001263C493004086068460480DB
:100F30002020019039483A4D029069460394284692
:100F4000FFF722FD2868802738432860A8683549C4
:100F50000840A86001212846FFF77EFD60200B9025
:100F60000C940D940E940BAA01210F942846FFF7C0
:100F70009FFD01212846FFF743FD10212846FFF77A
:100F80006BFD0C940BAA102128460D94FFF790FDE1
:100F900010212846FFF734FDA9142846FFF75CFD11
:100FA0000C940BAAA91428460D94FFF781FDA914EF
:100FB0002846FFF725FD68687021884320210843F3
:100FC0006860A868B843A860402002250794089488
:100FD00005A90A96099421C10920C0060839FFF71E
:100FE00017FB092005970794089405A9C0060A96DF
:100FF00006950994FFF70CFB05950794089405A93D
:1010000009480A9606950994FFF702FB15B0F0BD52
:101010000010024010E400E000E100E0FF0F0000DB
:1010200000040040F8BFFFFF00040048F0B5394855
:101030000121C2698FB049040A43C261C06900241A
:1010400008400D90012504200226032703946A46D8
:1010500005950494C1C209206946C006FFF7D8FA75
:10106000082003946A4605950494C1C20920694684
:10107000C006FFF7CDFA29492748CB781026C25879
:10108000274F3A403243C250CA786E038358032731
:101090003F03BB4333438350CB78C2582026B2432F
:1010A000C250CB78C2584026B243C250CE78835942
:1010B0008022934313438351CB78C2583E11B243ED
:1010C000C250CA788158B30099438150E120400250
:1010D00006900794089409940B940C940C20114CDE
:1010E0000A9006A92046FFF705FDA0682115884350
:1010F000A060A06889000843A06060684910884328
:101100006060A16808208143A160206828432060B6
:101110000FB0F0BD00100240000002403E22000867
:10112000EFBFFFFF00440040704700008307FF222D
:10113000DB0E9A408907090E994000280BDA000758
:10114000000F0838830808489B001818C3699343A8
:101150000B43C3617047830804489B001B18186841
:10116000904308431860704700ED00E000E400E0A1
:101170008307FF22DB0E9A408907090E9940002859
:101180000BDA0007000F0838830808489B0018187E
:10119000C36993430B43C3617047830804489B00B2
:1011A0001B181868904308431860704700ED00E072
:1011B00000E400E030B5026A520852000262026A9E
:1011C000436884697025A408A400AC430D682C43CF
:1011D0000225AA430D692A4352084D6852002A434A
:1011E000124DA84205D0124DA84202D0114DA8427E
:1011F00014D10825AA434D69AD002A430425AA430A
:101200008D68AD002A43FF250135AB438D692B4323
:1012100001256D02AB43CD696D002B4343608461B2
:10122000C96841630262012030BD0000002C01400A
:10123000004401400048014070B5026A1025AA43ED
:101240000262026A4368846973263602B4430E68F8
:10125000360234432026B2430E6936013243AA4394
:101260004D682D012A43134DA84205D0124DA842C6
:1012700002D0124DA84215D18025AA434D69AD0177
:101280002A434025AA438D68AD012A430125AD02BA
:10129000AB438D69AD002B430125ED02AB43CD6916
:1012A000ED002B4343608461C968816302620120C1
:1012B00070BD0000002C0140004401400048014086
:1012C00070B5026AFF250135AA430262026A4368CB
:1012D000C4697026A408A400B4430E6834436E00A9
:1012E000B2430E6936023243AA434D682D022A43A7
:1012F000134DA84205D0134DA84202D0124DA8426A
:1013000017D10125ED02AA434D69AD022A430125FB
:10131000AD02AA438D68AD022A4301252D03AB43DC
:101320008D692D012B4301256D03AB43CD696D0103
:101330002B434360C461C968C1630262012070BD70
:10134000002C0140004401400048014070B5026A91
:1013500001252D03AA430262026A4468C369732609
:101360003602B3430E68360233436E00B2430E6951
:1013700036033243AA434D682D032A430A4DA8423F
:1013800005D00A4DA84202D0094DA84205D1012539
:10139000AD03AC438D69AD012C434460C361C968A2
:1013A00001640262012070BD002C01400044014034
:1013B000004801407047000004494968F02211408C
:1013C000034A0909515CC840704700000010024000
:1013D0004322000803494968034A4905490F515C03
:1013E000C8407047001002405322000810B506485C
:1013F00041680C200140054805D0042903D0082984
:1014000001D100F005F810BD0010024000127A0072
:1014100010B5084C60680848E16A0907090F491CC3
:10142000FEF784FE61680F2292041140890C891C2A
:10143000484310BD0010024000127A0070470000BF
:1014400010B50C480A4CC078215849084900215071
:10145000094881688022114381600A2204212046C4
:10146000FFF7C8F804212046FFF7ACF810BD0000D4
:1014700000000240182200080044004070470000AD
:1014800070B53348012102688A430A43026000684C
:1014900008405BD02F4C2068012210432060206858
:1014A0008007C00FFBD02368F820834380210B43C3
:1014B0002360636B13436363626B9207D20FFBD0AD
:1014C000626B82430A43626360687B21C90388437D
:1014D0002121C90308436060E06A00090001E0625D
:1014E0002068012109060843206020688001C00FA0
:1014F000FBD06068F02188436060606807210902C2
:101500008843606061680220890889000143616046
:101510000C21606808400828FBD10F4E3046FFF7C9
:101520002DF90E4908690425284308613046FFF764
:101530006BF9606BA8436063206B102188430843FC
:1015400020630021481EFFF7F1FD70BDFEE700009B
:101550000020024000100240006CDC0200E000E0CD
:10156000154801680122114301604168134A114086
:1015700041600168124A1140016001680122920431
:101580009143016041683F22120491434160C16A66
:1015900009090901C162016BFF2294329143016381
:1015A000016B802211430163416B4908490041638B
:1015B0000021816070470000001002400CB8FF0855
:1015C000FFFFF6FE07480169C907C90F02D00121D4
:1015D000C943016101690907C90F02D00821C94344
:1015E0000161704700040040F8B504148BB2264630
:1015F00082B25E430D1410463714584336048019E6
:101600000021794116466E4337143604801979411A
:1016100026466E438919F8BD02E008C8121F08C1AA
:10162000002AFAD170477047002001E001C1121F63
:10163000002AFBD170470000F8B52A480121026A50
:101640000A430262026A10210A430262016A82149A
:10165000114301622449C162002141638163016435
:10166000C16AC16301680122114301604169082216
:10167000114341611D4A00201E4D00901B4C403219
:101680001B4B01212846FEF787FF03220121284634
:10169000FEF7B0FF01212846FEF7A0FFE0688008B2
:1016A0008000E060A06817218843C9070843A06054
:1016B000A068C00FFCD1E168032081430143E160D1
:1016C000A0680D4E3040401CA0602068C007C00FCD
:1016D000FBD001212846FEF775FFA0683040001DB1
:1016E000A060F8BD00040040FF0700000024014096
:1016F000B401002000000240E8FFFF7F70B50446FF
:101700000069E168FFF770FF0902050E60690D438B
:10171000A168FFF769FF0902000E0843281A20603C
:101720006069E168FFF760FF0902050E20690D435B
:10173000A168FFF759FF0902000E084328186060EE
:1017400070BD000008B576490120896901437448DD
:1017500081618069C007C00F009001200007FEF77B
:101760000FFF0021481FFFF7E1FC0021881EFFF753
:10177000DDFC0021481EFFF7D9FCFFF781FEFFF7D3
:10178000D1FAFFF7B1FAFFF70BFAFFF7BBFBFFF750
:1017900043FBFFF74BFCFFF7EFFA6348614D4561F0
:1017A000FF275037076142690069D317C117040A40
:1017B000090621430006FEF7CFFC5B490861084695
:1017C00000690121090642185748D3170069C1175B
:1017D000040A090621430006FEF7BEFC5249C86010
:1017E000084600690121090642180E12D31700208D
:1017F0003146FEF7B1FC4C4988600C4618346561EF
:10180000276162692069D317C117070A090639439E
:101810000006FEF7A1FC2061206931024218206910
:10182000D317C117070A090639430006FEF794FCCF
:10183000E060206931024218D31700203146FEF7DC
:101840008BFCA0603848394C303004613849416124
:101850000322920582615342C3610562283004610C
:1018600041618261C3610562F10128300161314942
:101870004161314981614942C161056230482F4966
:1018800001613049416141693202511A81612E4939
:10189000C1602F482D4941612E49C1602E49016325
:1018A0002E49C16390130921C90688612448002587
:1018B00024300570FEF782FDFEF750FDFFF7BCFEF9
:1018C000FFF7BEFD1E4C383420784007FCD5244875
:1018D000C0694006C00FF7D0607800F071FC207836
:1018E0004008400020706078401C60706078FF28DD
:1018F000EAD320780821084320702078FB21084093
:1019000020706570A078401CA070A078202804D2B8
:101910002078022108432070D6E7A570D4E70000A4
:101920000010024097050000580000203D0A1700F3
:10193000703D4A00A4DF00003333F30068EAA60ECE
:1019400004020020D250FF00B80B0000AF030700D4
:10195000640100205E68FEFF5C8F0200C3B40200D9
:1019600000440040F0B52020092189B0C9068861F3
:10197000FE48FF4D00780026012805D0032803D03B
:10198000042801D005287DD1F84874380168F74F44
:10199000FA680446891A4903183421604068396995
:1019A000401A400360602068E06020686168490078
:1019B0004018F049FFF718FE0902000E08432061A5
:1019C000387802287BD06968AA68914202DA69688F
:1019D000103169606968AA68914202DD696810394E
:1019E0006960E9696A688918E961EA69E2498A42D5
:1019F00003DBE969E14A8918E961032850D1E86904
:101A000000900146DE48814202DD4000401A08E0B5
:101A1000DB484042814203DAD7480818404200E0E0
:101A2000084604460746D7490090FFF7DDFD0A0245
:101A3000010E11433846FFF7D7FD0902000E084397
:101A4000D149091A2046FFF7CFFD0902000E0843CD
:101A500001460090CD488160E8690090002800DDD3
:101A60004042C749401804460746C6490090FFF760
:101A7000BBFD0A02010E11433846FFF7B5FD09020E
:101A8000000E00E0A3E20843BF49091A2046FFF711
:101A9000ABFD0902000E084301460090BB48C1603F
:101AA000B2480078042852D1B8484830006C009001
:101AB0000146B348814203DD4000401A09E046E098
:101AC000AF484042814203DAAB480818404200E088
:101AD000084604460746AB490090FFF785FD0A0219
:101AE000010E11433846FFF77FFD0902000E08433F
:101AF000A549091A2046FFF777FD0902000E0843A1
:101B000001460090A14881604830006C0090002898
:101B100000DD40429A494018044607469949009022
:101B2000FFF762FD0A02010E11433846FFF75CFD24
:101B30000902000E08439449091A2046FFF754FD94
:101B40000902000E0843014600909048C160874991
:101B50005C39CA688D4802600969416081698847BB
:101B6000824F8A4C3878443C052802D1A86908285D
:101B70000BD0A869401CA8617C480078002811D0CF
:101B800001280FD006280DD00EE068692060774844
:101B900024388068606076488830416A50308847D1
:101BA0000120E8E7E660A660E868714F8837386092
:101BB000764800697860796A384688476B480178CA
:101BC00038462830052955D0296901606F4949698F
:101BD0006E486C384160416A884764480078012843
:101BE00004D8FE6069486C38C660E660B96867482A
:101BF0001C380161014650398968416163498A682E
:101C00008260C968C16081698847584848388168DE
:101C10005E4F1C377960C168B9600069F86053484D
:101C2000743880680003386038685949FFF7DCFC75
:101C30000902000E0843B862B86A7968BA684900B8
:101C4000891AFA68891AFFF7CFFC0902000E0843C7
:101C50007861B86AB9687A684900891AFA68891A95
:101C6000FFF7C2FC0902000E0843B861388A002859
:101C700002D007E0A168A8E7786940427861B869B6
:101C80004042B861786938627869B969490040189A
:101C90003849FFF7A9FC0902000E0843786233486F
:101CA0000078042808D139484830016B394A9142FC
:101CB00002DA016BA73101632C485C38C168334CF0
:101CC0004834A16200696063386A2060786AA06164
:101CD00060692169FFF788FC0902070EE0680F437D
:101CE00021686268891AA268891AFFF77DFC0902D7
:101CF000000E0843381820616069616AFFF774FCC0
:101D00000902070EE0680F43A169E269891A226A95
:101D1000891AFFF769FC0902000E0843381860624F
:101D20002069A16A401AE062606A616B401AA06390
:101D3000E06AA16C884201DDA06C08E0E06AA16C59
:101D40004942884202DAA06C404200E0E06A216B1E
:101D50004900FFF749FC0902000E0843A060A06B90
:101D6000A16C884218DDA06C1FE000002802002052
:101D7000000000203ACD93006C3F24032881B7F97E
:101D8000B61F92011B812400504EFC001C01002054
:101D90005555550066662600A06BA16C49428842E5
:101DA00002DAA06C404200E0A06B216B4900FFF713
:101DB0001BFC0902000E08432062E06BA168626808
:101DC000891AFFF711FC0902000E084361684018E8
:101DD0006060E06B216AE269891AFFF705FC09027D
:101DE000000E0843E1694018E061C24A6168101DB5
:101DF0004942C9120191E1690796C91203960291FD
:101E000000290DDA0199002901DD012101E00021FD
:101E1000C9430791029949420291019949420191AE
:101E2000B54B009602990491019900290F4600993B
:101E30000FDC0F410299C91B0291049F00990F41C9
:101E400001997918019100998F00DF590399C91BF5
:101E50000EE00F41029979180291049F00990F41F9
:101E60000199C91B019100998F00DF5903997918D5
:101E700003910099491C00910E29D3DB0799002991
:101E80001AD09E4F0B467B43039FD91903911160D3
:101E900002990160206CC0022064E869984C2060BF
:101EA00020686168401A2062206A0121C905C84281
:101EB000206A03DA490008E00399E8E70121C9052F
:101EC000884204DD206AFF2109064018206220694B
:101ED000216AFFF789FB0902000E0843206260694E
:101EE000A168C910FFF780FB0902070EA0690F4324
:101EF000216AFFF779FB0902000E084338182062B7
:101F0000216A01204005814204DC216A404281426D
:101F100000DB206A2062206AC000A0602068606048
:101F2000A268E0683146D317FEF73CF90902000EBB
:101F30000843E0616F48A4380168714C243C21607B
:101F400040686060606860616068471020686D4943
:101F5000FFF74AFB0902000E08433818A061A06988
:101F60006169401AE06103202084A169002900DD35
:101F700002202084E169002900DD401E80B2208417
:101F80006169002901DA0721081A80B2208401283A
:101F900023D0042821D0022827D0052825D0E069A5
:101FA000A060E0694042E0606069A1694018404279
:101FB0002061A068811354480A1854494A63E268B2
:101FC000921312188A6322699213101808644C48FD
:101FD00024300178002910D043E0A069A060606936
:101FE000E169401AE060A069E1E7E069A169401891
:101FF000A0606069E0606069D9E7414950390A68CA
:1020000002604968416042490A6A520852000A6205
:102010000B6A102293430B620B6A8A1593430B627F
:10202000C36804681B19C360036944681B19036112
:102030002B785B1CDBB22B70802B12D3C368DB11B7
:10204000C3600369DB1103612E7001230370086A0A
:10205000184308620B6A102003430B62086A10439E
:10206000086227483830017889073DD50178FB227E
:10207000114001700178F72211400170014670395A
:10208000CA684378120C5B001B189A8009690A0C15
:10209000417849000918FF31FF3102314A80154962
:1020A0006C3909684278090C5200012312189B020E
:1020B000D21811800F494039096C4278090C52003E
:1020C000172312189B01D218D1874178491C4170FF
:1020D0004178FF2908D30178042211430170017867
:1020E000FD2211400170467020200921C906886236
:1020F00009B0F0BDA4010020200000208864000089
:10210000040200202DB2DD00FF03000000040040A7
:10211000002C014070B504460068E168FFF764FADE
:102120000902050E60680D43A168FFF75DFA090218
:10213000000E0843281820616068E168FFF754FA30
:102140000902050E20680D43A168FFF74DFA090248
:10215000000E0843281A606170BD38B50446006857
:102160006168401A0090E06800994018E06060697A
:10217000E168FFF739FA0902050E20690D4300995D
:10218000FFF732FA0902000E08432818A060E06841
:10219000A169884201DDA069E060E068E1698842E8
:1021A00001DAE069E060A068A169884201DDA06908
:1021B000A060A068E169884201DAE069A06038BDEA
:1021C00010B5144945220A705A224A704200084646
:1021D0007C3010188288120A8A708288CA70C21DE8
:1021E000FF32FA3253881B0A0B7152884A7101225E
:1021F0009202821813881B0A8B711288CA711722E7
:1022000092018018C28F120A0A72C08F4872FFF7BB
:1022100017F910BDC0010020081C304458081C30BC
:1022200044580000000004040400000800000008F6
:102230000000080000000800020406080A0C081C40
:1022400030445800000000000000000102030406B2
:102250000708090000000001020304007C220008B6
:1022600000000020B4010000E6020008CC220008B3
:10227000B4010020840C000028160008412321230B
:102280000415E21D0423221923D60E23D70723FBAE
:102290000333FF01190432803240322032103208F9
:1022A00029424A021F01145A0A0409261801113B47
:1022B0005B21670963280B18FD161C0A11153809E4
:0C22C00015F4014F228013127A00000078
:04000005080000C12E
:00000001FF
